:020000041000EA
:2008000032540000C74F00000000000000000000000000000000000000000000000069696A
:2008200000480047290800100348854600F062F800480047011800100002002030B50B4678
:20084000014600202022012409E00D46D5409D4205D31D469540491B254695404019154632
:20086000521E002DF1DC30BD70B500242546002801DA01244042002901DA01254942FFF718
:20088000DDFFAC4200D04042002C00D0494270BD03460B439B0703D009E008C9121F08C0C9
:2008A000042AFAD203E00B780370401C491C521EF9D27047D2B201E00270401C491EFBD24B
:2008C00070470022F6E710B513460A4604461946FFF7F0FF204610BD30B50446002003469B
:2008E00000E05B1C934203D2E05CCD5C401BF8D030BD0000064C0125064E05E0E36807CCB3
:200900002B430C3C98471034B442F7D3FFF790FF200B0010500B001030B58C180278401CB4
:2009200013071B0F01D10378401C120906D10278401C03E005780D70401C491C5B1EF9D121
:2009400001E00B70491C521EFBD1A142E6D3002030BD000030B523254124204730B50325EB
:20096000004C20470104001030B521254124204730B522254124204730B50D2541242047DD
:2009800030B50E254124204730B50F254124204730B50C254124204730B5112541242047C5
:2009A00030B510254124204730B515254124204730B50025004C20470104001030B51E256C
:2009C0004124204730B528254124204730B529254124204730B52A254124204730B539250B
:2009E0004124204730B538254124204730B540254124204730B541254124204730B53B25AB
:200A00004124204730B53A254124204730B50425004C20470104001030B50325412420474B
:200A200030B502254124204730B507254124204730B506254124204730B50125412420474E
:200A400030B500254124204730B5084C1E252560E1252560064C25686415A543044C25601F
:200A6000024C00252560332541242047105000400848004030B50525004C20470104001053
:200A800030B531254124204730B535254124204730B534254124204730B530254124204734
:200AA00030B556254124204730B554254124204770B55025412402A6761C00BF70B420475D
:200AC000014E166070BD00000601210B30B551254124204730B552254124204730B5022596
:200AE000004C20470104001030B559254124204730B55A254124204730B55B25412420479E
:200B000002E008C8121F08C1002AFAD170477047002001E001C1121F002AFBD17047000025
:200B2000500B0010000000000C0000000E0B001000000000500B0010B00400000E0B0010CD
:200B4000000000200402002008000000000B0010000000000000000000000000000000002C
:200B6000000000000000000000000000000000000000000000000000000000000000000075
:200B8000000000000000000000000000000000000000000000000000000000000000000055
:200BA000000000000000000000000000000000000000000000000000000000000000000035
:200BC000000000000000000000000000000000000000000000000000000000000000000015
:200FE0000000000000000000000000000000000000000000000000000000000000001E8C47
:201000000000000000000000000000000000000000000000000000000000000000002A4561
:20102000394F0010F5110010514F001087120010554900200978022919D15449097800290E
:2010400015D153490978022911D152490A78CC210A420CD1504A12780A4208D14F4A1278E1
:201060000A4204D14E4A12780A4200D101204D490A78824206D008704B480122016812078D
:20108000114301607047F8B54848012501680020474A484B434E444C2D0700292FDA4649BE
:2010A000107008704549187008704549192208704449307008704449520208704349464B4E
:2010C0000A80354AFF211170414A1070414A1070CD22D2011A80314A414B11703F4A107063
:2010E000CA001A802B4A11703E4A10703E4A10803E4A10703E4A1080294801701AE04F002B
:2011000018D510702C4A10702C4A187010701F4802782B480270307800280BD01A480078A3
:20112000022807D18802800F01D1080302D5206828432060FFF77CFF072120684906884332
:20114000206002F09FFE02F0E9FC02F0DDFB02F0D1FD2068A8432060FFF76AFF2068C00085
:20116000EFD412480F2201689204914301602068A843206002F0A5FE02F04CFD02F075FCC7
:2011800002F0F7FDF8BD000050000030450000306B0000303E000030390000303C000030E1
:2011A00040000030B81600107002002058020020A5020020A7020020A6020020A8020020B3
:2011C000A40200203700003038000030120000303A0000303B000030140000303D000030B2
:2011E000180000308D0000301A0000303F0000301C00003070B504460B2601250921FFF7FF
:2012000060FB20780821084343492070097804228907890F08434149207009786079C907ED
:20122000090F084360713E49601CFFF731FB3D480078062806D23C490622097851433B4A0B
:2012400089180E5C3A480078002804D0012816D0022816D0002560793101084335490978F4
:20126000C907490F08432843607133480078A07132480078E07132480078207270BD0225A0
:20128000E9E70325E7E770B50446002601250921FFF717FB2078082108431F492070097816
:2012A00004228907890F08431C49207009786079C907090F084360711949601CFFF7E8FA8C
:2012C00018480078062806D21749062209785143164A89180E5C16480078002804D001282D
:2012E00016D0022816D0002560793101084311490978C907490F0843284360710E48007825
:20130000A0710E480078E0710D480078207270BD0225E9E70325E7E742000030430000303F
:201320006300003050000030540000307E1500100402002049000030370000303A00003003
:201340003D000030F1440010FB4400100B4500101B4500101B4500100000000025450010D2
:201360002F450010534500100000000067450010714500107B450010854500108F45001031
:20138000EE130010F0130010F2130010F4130010F6130010F8130010FA130010FC1300108D
:2013A000FE13001000140010021400100414001006140010081400100A1400100C140010E6
:2013C0004516001047160010491600104B1600104C1600104D160010102717B8422267029D
:2013E000000099FDA00080024000803D80EAE803E803F401F401F401F401F401F401F40145
:20140000803E803EF401F401F401F401F401803E803E803E803E803E803E803E803E803ED9
:20142000803E803E803E803E803E803E10274300430043004300430043004300004B004B96
:20144000004B0096004B8025004B00000000000000000000803E000000FA0000801CCA0250
:2014600000AC0D0000D00700A00F0000803E0000803E0000A00F000000FA00000000000008
:2014800000FA000000000000803E0000803E0000803E0000803E000000FA00000000000060
:2014A00000FA000000000000007D0000007D000000FA0000E803000000FA000000FA00005F
:2014C00000FA0000803E0000803E0000803E0000B80B0000E3600101E3600101E360010146
:2014E000E3600101E3600101E3600101E3600101615E7A867A86FADEFADEFADEFADEFADEE1
:20150000085CFADEFADEFADEFADE085CFADE000000000102000001030303010301040404AD
:2015200004010404030101010101010113C66C3930F44F0B3D2442DB11E66E192C00000070
:2015400011EEEE11DE3113FDFA388300000000002F00000031000000370000001200000010
:2015600015000000380000000101000000000807060102030E0D0D0B0B0A0A0C0C040B0B7D
:20158000080B0B0B0B000B0B0B0B0F01090D0B0B0B0B0B0B0B0B0B0B0B0B0B0B0B0B0B0BFF
:2015A0000B0B0B0B0B0B0B000B0B080B0B0B0B0B0B0B0C0B0B0B0A0A0B0B0B0B0B0B0E0BD7
:2015C0000B0B03030B0B0B0B0B0B040B0B0B05050B0B0B0B0B0B060B0B0B0B0B0B0B085C85
:2015E000615E7A86FADE2801080A08080804040406060601010103040200010001000100D4
:201600000100050202010101010101010205010101010100000000000001010101010001A7
:2016200001010000000000000000000100010001000100FF00FF02FFFF030303010101009A
:2016400000040203055F6B5F6B5F6B00000000020606060402FF02FF000000000000000004
:20166000067F067F067F067F067F00000001000100010001000100000101020202FF0000C5
:201680000000000009091716110001030528000000000008F200000000080F0000000008B0
:2016A0000501690B050100010101010100000000000600000400000000000000000000009B
:2016C00000000000000000000000000000000000000000000000000000000000000000000A
:2016E0000000000000000000000000000000000000000000000000000000000000000000EA
:201700000000000000000000000000000000000000000000000000000000000000000000C9
:201720000000000000000000000000000000000000000000000000000000000000000000A9
:20174000000000000000000000000000000000000000000000000000000000000000000089
:20176000000000000000000000000000000000000000000000000000000000000000000069
:20178000000000000000000000000000000000000000000000000000000000000000000049
:2017A000000000000000000000000000000000000000000000000000000000000000000029
:2017C000000000000000000000000000000000000000000000000000000000000000000009
:2017E000000000000000000000000000000000000000000000000000000000004227000080
:2018000010B51248016882141143016011491048086080074168104A1160104900220A60FB
:201820004268120201D5086006E00122D2070A6081689210114381600121C905416000F01F
:201840000FF80020FFF754F9002010BD00500040555555550002002054020020580200203B
:20186000F8B501270026BF077D00304C05E0FF2E03D30026012001F02BF9761C2068B6B2E8
:20188000400200D5256001F0F1FE01F0EDFC00F041FE01F0E7F800F055F800F0B9FB01F021
:2018A000EAFB234809210068C904084210D0214801210170881E786000221F49104600F005
:2018C00063FE002020601B480078002807D008E018480178002902D000212560017002F068
:2018E000C8FE2068012140004008B84349078843182120602A46CA40491C9043C9B22029AB
:20190000F8D320600D480E4902688A4203D00160012001F0DDF820680028A8D100F070FEF8
:2019200001F0C0FF01F086FCF8BD000058020020540200208C00003040420F000002002070
:2019400055555555F8B5264F00203968254A264B264C274D274E00291FDA2749107008807B
:201960002649086018702649207008802549088025490860287025493080088024490860A2
:20198000244908802449086024490870244908802449086000F00CFB1CE04F0015D5107022
:2019A0001870207028701949308008801849086018490880184908601849087018490880A0
:2019C0001849086000F0F5FA04E0012204481207914301600120400241054860F8BD0000B8
:2019E0005802002078020020790200207A0200207B0200202002002002000030200000303B
:201A0000040000300600003024000030220200205C02002024020020600200207C020020E0
:201A20002602002064020020F1B584B000200290039000903548F3210068354C08400190D6
:201A40002078344D344E002807D0288869460880019831680843019025E002A98A20FEF7A8
:201A6000EFFFF7270199384008430190412002A9C001FEF78DFF0199384008430190694681
:201A80000820085E0880254A898911802D210901884203DA01990822114301912880019834
:201AA00030600120207000990498019A06C005B0F0BDFEB500200090164E0190184F308876
:201AC00039884018694608804120C001FEF768FF114C2168084369462060488889880504EE
:201AE0000E48018030883988401A694608804120C001FEF755FF21680843694620604888C7
:201B00008A88064928430A80FEBD0000240000307802002002000030200000300400003010
:201B2000E4130010F0B5074685B00020244D02900390009001902878224C234E002805D024
:201B40006088694608803068019010E002A98020FEF766FFF32108406946019008890880F3
:201B600089892180608001983060012028700098019903C705B0F0BD1CB50020104C0090B5
:201B800001906078002810D101F08CFE0D486946408808800020C043012189074860FF2167
:201BA0006846FEF7A9FF012060701CBD0548074900880A88811A801889B2000408437047E5
:201BC000790200200400003024000030E6130010F1B586B00020029003900090E348F321E9
:201BE000006804220840E249E24C0968114008430190207802A940029E30FEF71DFF01991A
:201C0000C0B2084301906846DB4E408930802078012540026D0380302843D84F410402D558
:201C200039886A469181D64B002102AA595EFEF7A3FE0199C0B20843019069460820085EC1
:201C4000002100F085F96946088108802178490280312943490402D46946898939807080A7
:201C6000C8490198086000990698019A06C007B0F0BDF1B588B0002005900490009002900D
:201C80000390BA48F321006804220840B849BD4D0968B94C114008430190BB480078002874
:201CA0000CD06188684601800198296808430190A188684601816868039062E0AD4E04A984
:201CC000307840029830FEF7A1FEB049AB4F08400199084301906846408A20803988684686
:201CE00081820198002801D0052007E0307804AB4002042231218030FEF742FE0390A448CE
:201D00000021415E05221202A248914201DBC08800E08088694608819F4900B2984B884280
:201D200002D1188869460881307801264002760380303043420402D56A46928A3A80002187
:201D400004AA595EFEF718FE0199C0B20843019069461020085E0880864909784902803112
:201D60003143490402D46946898A398060800198286068460089A0800398686082480121AA
:201D800001706D461ECD08981EC009B0F0BD1CB500200090019077486B46007804224002EE
:201DA00031218030FEF7F0FD00280BD16946085E79491038C943884200DA084670490880DD
:201DC00001F083FC1CBD1CB5002000900190694800784002001DFEF72BFE6A4CC0B2216851
:201DE0000843206021D16D480169090A09021E3101610169090A0902E131016168493F222A
:201E0000086812029043352212021043086069460320FEF709FE2168C0B208432060614808
:201E200081680907FCD50821816068465249408808801CBDFEB500204F4E00900190308813
:201E400069464C4C48802078012540026D03803028434A4F410402D539886A469180484B1E
:201E600000216A46595EFEF787FDC1B2454802681143016069460020085E002100F068F89C
:201E80006946088070802078400280302843400401D488883880FEBD7CB50020374C009026
:201EA000019020886946888050200880012100F04FF8694608802F4D01262878304B4002AA
:201EC00076038030002130436A46595EFEF764FD2C490A68104308602878400280303043E1
:201EE000400402D4684680882080684640887CBD7CB50020214C0090019020886946888085
:201F000029490020085E69460880012100F020F869460880174D01262878194B40027603E7
:201F20008030002130436A46595EFEF735FD15490A681043086069464888297800044902D5
:201F400080313143490402D46946898821807CBD164B80B210225843002900D011220E49BC
:201F6000D040884200D9084600B270472400003020000030B3160010200200200400003004
:201F80001E0000305C0200207B020020FF02000006000030C0000030FF7F000000500040A3
:201FA0000078004000100040E81300100A6A010070477047F0B5074685B00020114C0290F5
:201FC00003900090019020780F4D104E002805D0288869460880306801900EE002A98020B5
:201FE000FEF71AFDF32108406946019008890880288001983060012020700098019903C7A2
:2020000005B0F0BD7C0200202602002064020020FA480068002802DAF949002008707047B3
:20202000F3B59DB000251795059514210BA80695FEF747FCF24C05212078401CC0B2FEF7C6
:20204000FDFB21704800EF49085A7D21C9004843159009A8FFF7BCFDEB49EC4B485F0246C4
:20206000503A9A4243D2EA4F3A68002A3FD16946E84E088132888A8300F039FA050033D070
:2020800040010321FEF7DAFB054600F0D8FB01241790179800F0FAFB09A8FFF799FDDA4844
:2020A00002AA018860001152641C328807A9E4B20A52032C02D238680028EAD000F0FDFBDF
:2020C000032102A8FEF796FC00B21A90032107A8FEF790FC06901A98CC4950388842C1D2B9
:2020E00038680028C2D103E0002069460881D4E1FFF7D2FE169038680028F8D11A9800F0F6
:20210000F6F90500F3D000246100002010AA50520BAA5052C04A641CE4B25052022CF3D3FA
:2021200001200A90284600F08AFB179000F0AEFBFFF749FEB74806990088411A0E02B449F6
:202140000968002909D11699884206D30120C003C64202DB401E864201DD00204CE1092175
:202160002046FEF76BFB490010A836B218914652AA494E430127E01B0921FEF75FFB49000B
:2021800010A8425EA64B78001B5E7F1C5A430BAB595EA34B92199B1F185EFFB24143561AF2
:2021A000032FE8D3002E01DB9E4801E09D48404230189D49FEF758FB0121C90342184900F3
:2021C0008A42CAD206B2189A0BA994488E5246430127E01B0921FEF731FB48000BA90A5E62
:2021E0008F4B79005B5E7F1C5A438B4B9219185E8B4BFFB29B1F595E4843161A032FE8D304
:20220000002E01DB874801E08648404230188649FEF72AFB0121C903421849008A429CD2B8
:202220007D49189A06B28E524A2C7DD90F460921601EFEF703FB4800385E0490864256DD65
:2022400007460921A01EFEF7F9FA73484900405E87424CDD07460921E01EFEF7EFFA6E48C4
:202260004900405E874242DD07460921201FFEF7E5FA69484900405E874238DB074609211A
:20228000601FFEF7DBFA64484900405E87422EDA07460921A01FFEF7D1FA5F484900405E0D
:2022A000874224DA07460921E01FFEF7C7FA5A484900405E87421ADA0746204609210838C8
:2022C000FEF7BCFA54484900405E87420FDA1E9800285648007803D0002808D0002002E055
:2022E000012804D901206946087500200A900498864259DA07460921A01EFEF79FFA4648E9
:202300004900405E87424FDA07460921E01EFEF795FA41484900405E874245DA074609211C
:20232000201FFEF78BFA00E067E03B484900405E874239DC07460921601FFEF77FFA364893
:202340004900405E87422FDD07460921A01FFEF775FA31484900405E874225DD0746092185
:20236000E01FFEF76BFA2C484900405E87421BDD0746204609210838FEF760FA26484900C5
:20238000405E874210DD1E9800282848007803D0022809D9022002E0032805D90320694665
:2023A000087500200A9002E00A9800286CD1204609210838FEF742FA17484900475E092185
:2023C000201FFEF73BFA14484900405E391A321A002900DA4942002A00DA524232206423B3
:2023E00048435343914204DA6420414332200B46504383421CD201200A9045E058020020C0
:20240000340000304A14001022020020911500005C0200202002002028020020670200008D
:20242000DE1300108813000010270000B4160010179800F02BFAFFF7FDFC32490020085E3B
:20244000314A0146503991421ED23049096800291AD100F04CF8002816D0A84201D9401B0F
:2024600000E0281A1A99A02908DD642148430A21694307E001206946487505E06421484389
:202480002901491B8842F5D9641CE4B2822C04D20A98002801D0179848E66846407D002871
:2024A00013D01E980695002828460BD041006818014606901598814200D20690179800F062
:2024C000E5F90CE00B214843F2E71E98002801D0002000E00120694608750020069000F000
:2024E000ECF905991D98069A06C01FB0F0BD10B50003FEF787FA002803D001460448FEF701
:202500009DF910BD22020020911500005C02002096CF8A04F8B53D48002400683C4E25464A
:2025200000281FDA11211020FEF7D0FA074639490720FEF73DFAF80701D1FEF7CBFA36482E
:202540006100641CE4B245520C2CF9D33349002042008D523554401CC0B20328F8D300F06F
:2025600061F80AE0400006D53555641CE4B2032CFAD300F057F800F08FF800F0C5F9E120FC
:20258000000281054860F8BDF8B50F460646032802D2114600F0F0F91F4A0020710050523D
:2025A00030460A300125ED07C540184C002F0FD01B48874204D2384600F085F9002807D0ED
:2025C0003946304600F08DF82068A8432060F8BD206805432560F8BD10B50446032802D2D1
:2025E000002100F0C9F90C4A00206100505201210648C9070A340268E1408A43026010BD8A
:2026000010B500F098F800F0DFF910BD580200207D02002080BA8C016C0000300C00003028
:202620006889090070B55248816880680D0D00035049C40D002009684F4A0346002902DA11
:202640001380538021E0012189074968CE054A49098810D4A9420ED9491B89B201290DD15C
:20266000FF251435AC4209D856882C1BA419A4B25480AC4201D3538000E000213F4A4300B0
:20268000401CC0B2D1520C28F9D37D20FEF76CF93B48FEF709FA70BDF8B500240127354D2F
:2026A000FF0720460A303E46C6402A683548B24361002A60435A002B0ED03048405A83427E
:2026C0000AD800202F4B164358522E60032C03D20021204600F050F9641CE4B20C2CE0D328
:2026E000F8BD10B50A462849044648101018FEF7A5F800280BD001210903884200D9084621
:20270000204A610050521D4A0020505210BD0120F6E710B500280AD001460420FFF7E1FF50
:2027200014480122016852049143016010BD154900200881F4E770B5012424030F4D114950
:2027400000204300CA5A002A06D0EE5A921B92B2CA52A24200D21446401CC0B20C28F0D3C8
:20276000601E80B2FEF7A0F90348048070BD00000050004058020020080000303A02002081
:20278000FF0F00006C00003048E801007CB50125584C00212160584A2E463C2804D9014623
:2027A0003C394B1E93420CD90026FA2805D97D21C900FA38FEF742F80146504A481E90427A
:2027C0002AD86B4601AA3046FEF7C4F8050023D1694608790B210907411849480160694615
:2027E0000988416042158260E16849084900E16001688315194301602169C304194321615D
:20280000811402E003680B43036083689B05F9D50123A3608260016028467CBD70B5364D13
:2028200004466D1C08E0A54200D92546641B2846FFF7ACFF002801D1002CF4D170BD70B5E7
:20284000064601250A21FDF7F9FF2A4C002222602C4B811F994209D97D21C9003046FDF730
:20286000EDFF264BFF22411E99420DD881B21046FEF77EF8050007D1E06804218843E06072
:202880002068490708432060284670BDF8B5002812D1184C206800280EDA0027FF43184D78
:2028A000A6143846FEF724F9286830432860A0684007F6D50420A060F8BD0E4804218160F4
:2028C00000210160704770B50546FF203730854209D92846FFF7B3FF0446FFF7D7FFFFF7FE
:2028E000ECFF002C03D02846FFF750FF0446204670BD0000001000401FA1070087130000AD
:2029000000500040CE300000F8B500200126B60771684E4A8F044E4B4E4C4F4D0146002F2F
:2029200007DA106877123843106019802180297040200126B6077668760409D501271668D7
:202940003F053E431660598061802026697030430126B6077668360409D501271668FF046D
:202960003E4316609980A180A97010210843002801D0FEF7B9F8F8BDF8B54500354E364F43
:202980000A460446002916D0344948101018FDF755FF002812D001218902884200D90846A1
:2029A000705301203855002C0AD0012C0AD01020FEF79AF8F8BD00207053F3E70120EFE779
:2029C0004020F5E72020F3E7F8B5234D00242878204E00280CD0FFF76CF83188020C2024E9
:2029E000491E03B289B212B22046FEF777F80424687800280DD0FFF7D9F871880346020CCE
:202A0000491E0227062089B21BB212B2FEF766F83C43A878002813D0FFF76AFA104B082159
:202A20001B78020C5B0241339DB20D43B18803B2491E89B212B22846FEF750F8012004431E
:202A4000002C02D02046FEF74FF8F8BD580200206C0000300C0000307D02002048E80100FF
:202A6000B316001010B52448244902680020002A1DDA08602249C86022490870401EFEF703
:202A80000FF87F23012220491B049207002801D0D01101E05068184008605068000304D582
:202AA00001240868E40420430860536010BD5200FCD5086010BD10B5104C0020206000F045
:202AC00068F800F0F3F8206810BD0F480068704710B5044600F0E6FE002C05D00120800764
:202AE000816842131143816003480122016892051143016010BD000058020020680200206F
:202B0000005000403500003028000030F8B537480D220068D206010E009135490702098815
:202B2000000E09028D180006C00105433F0A11211020FDF7CBFF2F4C060004D0012E02D009
:202B40000821206813E02C490720FDF731FFC10703D02168042211432160810703D5216809
:202B6000022211432160400703D52068012108432060C92007212843490408433946FDF741
:202B800079FF0098FDF788FFF00701D1FDF7A2FFF8BD10B5FFF7BAFF00F001F810BD08B5B0
:202BA0000020694608806846FDF7FEFEC30710221049002B02D00B6813430B60830702D539
:202BC0000B6813430B6043072022002B02DA0B6813430B60030702D50B6813430B60C0061F
:202BE00002D508681043086008BD0000D41400102E1400106802002080BA8C0138B5032162
:202C00006A468903002000F06AFD524C4025002804D0022802D020682843206001206A46C2
:202C20004D49000700F05BFD002804D0022802D020682843206049486A4681B2484800F050
:202C40004EFD002802D020682843206044483F216A464901203000F042FD002802D02068D5
:202C6000284320603F480078002809D16A4620213D4800F034FD002802D020682843206064
:202C800039486A463949203000F029FD002802D02068284320606A463549364800F01FFDF6
:202CA000002802D020682843206038BD10B500F006F8FFF7A3FF10BD2A4908707047F0B553
:202CC000002301202C4A2D4D2D4940070468066856400660066827465740BE4200D0802348
:202CE00006686E400660066827464F40BE4200D0802306684E4006600668A64200D080234A
:202D0000204C001DA042E1D9032000070468066856400660066827465740BE4200D08023A9
:202D200006686E400660076826464E40B74200D0802306684E4006600668A64200D0802311
:202D4000114C001DA042E1D90248016819430160F0BD000068020020FE03000006000000AF
:202D6000000800103500003000100010DE070000FE3B000000180010EEEEF11FF11FEEF195
:202D80001FF11FEEFC030020BC000030F0B5012189078868042318438860F848426901244A
:202DA0002243426142691024224342610268150CF34A2D045678177836023E4376BA35436D
:202DC00005608D68082635438D60456902263543456145692026354345614568D6782D0CCC
:202DE0002D04977836023E4376BA354345608D6825438D6044691C4344614369402423431C
:202E00004361836854791B0C1B04157924022C4364BA234383608B68202423438B60416954
:202E20000823194341614169802319434161C168D379090C090494791A02224352BA114399
:202E4000C160F0BDF8B501240546A407A06861118843A060A0684E10B043A060FF2161605D
:202E6000002D75D0C54F032D01D0042D08D1C548FDF7A8FDC4480078362807D03C2805D029
:202E800039693F2000028143396107E039693F20000281431F20000208183861012D08D023
:202EA000022D06D0042D04D0A0683C210843A06005E0B6490C20FDF789FDFFF767FF3969D0
:202EC0003846B34A01231140B24ADB03114399433961C0220127022D03D0032D24D0042DFD
:202EE00007D00169C908C900491C0161A168394306E00169C908C900C91C0161A168C1228E
:202F00009143A160416919434161A06802210843A06028468D0601280FD0032821D004286D
:202F200017D0A068B0430BE00169C908C9000161A168490849001143E3E7FF21F93109E06A
:202F4000A06000209449C043886094480770F8BD12E0F8210820FDF701FDA068A8433043F6
:202F6000EEE789480078362804D03C2802D07F21C900EFE70821EDE7A0680843A060E6E76F
:202F8000F8B587480124240602686500A243AA437D4B02601E780627A1013C2E3DD00DDCD6
:202FA0000D2E1AD005DC7F4C062E44D00C2E11D12EE00E2E1FD0362E0CD14CE0D62E55D00D
:202FC00004DCC62E52D0CC2E04D130E0DD2E0ED0DE2E19D000201870B9E74C682406240EE6
:202FE00001D0DD210CE08868A8438860AFE70D20187001203CE04C682406240EF3D0DE21F9
:2030000019702A430260A2E70E20187002202FE04868C007E7D03C2011E04968C90704D018
:20302000CC211CE0FFF775FB91E790038FD50C20187003201CE04E68F60706D03620187098
:203040000320FFF7FFFE2046ECE74C682406240EC9D0D621D4E74968C90705D0C621197000
:20306000224302600020DDE79003B5D51F700420FFF7E8FE6BE710B5494848490268002036
:20308000002A07DA087040490870FFF7DBFEFFF77DFE02E0520000D50870FFF771FF10BDB8
:2030A00000200121890789688A013749097801D4002913D0314A00201269C0435207520F0D
:2030C0000DD0012A19D0032A08D1062905D0362903D0C62901D0D62900D1042070473C29F3
:2030E00009D004DC0C2906D03629F7D1F5E7C629F3D0CC29F2D1032070470D2907D00E2981
:2031000003D0DD2903D0DE29F6D1022070470120704730B41C490A783C2A48D00CDC0D2A1C
:2031200028D004DC062A45D00C2A11D13FE00E2A3AD0362A0CD13DE0D62A3BD004DCC62AC4
:2031400038D0CC2A04D132E0DD2A13D0DE2A2BD0002811D0124B03241A682406A2431A6005
:2031600001282AD002282AD003282CD004282CD0002225E00128EDD130BC70470030004098
:20318000DE15001003020000360000303C0F0000C77FFFFF184000000020004080020020D8
:2031A0005802002000A00F000228D3D1E4E70328D0D1E1E70428CDD1DEE70D2200E00E22EB
:2031C0000A7030BC3EE60C22FAE70622F8E7F8B500246B460D461C70097804221970022993
:2031E0001ED313075E68760700D500225E68360700D501225E68F60600D502225B689B0670
:2032000001D5032201E0042A0AD26B46891E19705100124A022489180A780270497841700D
:2032200001196A461078FDF7D5FB6B461978611829708CE60A48007800280DD0012080073B
:20324000816842111143816006490978002903D0816882101143816070470000DE150010C7
:20326000360000308002002070B5E44800240168E348E44D002901DB490008D50460E14854
:203280002021801CFDF71DFBDE482C70447070BD70B57D210901884201D2002003E0DA4912
:2032A000884200D90846D949D54D0A680021904201D2002013E0296000280BD07D21C9009B
:2032C000FDF7BCFA044681B21120FDF7D9FB002801D0002070BD7D20C000604301212960DD
:2032E00070BDF7B5C5B2CA486E00805B0C460D220102D2061143C748AA0082580227100E99
:203300000006C00108431102C34A090A1043FDF7B1FBC248415DC2483943805BFDF794FBE9
:20332000B74811220068BF492043029BFDF7B0FBFEBDF3B50746BC49C0B20E5681B0052F5C
:203340005AD0BA49BA4A095C125CB64C8918C91C45002173B748AB49405D6073B648091D81
:20336000405DA073384601F016FF02990870384600F0DCF8A348801C2060207BC000401E04
:203380002073AE4829189F480A7882704978C170607B002809D06073A648415DC91DCA0823
:2033A00029189848491CFDF773FA96486060A07B00280AD0A073A048415DC91DCA082918D9
:2033C0009048491C401CFDF763FA8E489C49401CA060F0B2085C2074062060740520A0741F
:2033E0000020E07302980E2102783046FFF779FF3F2189028843FEBD304600F0CDF8002077
:20340000FEBD70B5C5B28F482B464657062043438D48844CC15C217300226273A2738B4A8D
:203420000029525DE27309D04A1E2273C91DCA0819187448491C801CFDF72AFA7148804949
:20344000801C2060801E6060401CA060F0B2085C207406206074A074E07B0221401EE073BF
:203460007B48425D3046FFF73CFF8005800D70BDFEB5C1B200246A467648147040560190A1
:203480007548764A4056565CC1B25D4F032901D3002504E0FFF7B5FF054601203860280465
:2034A000000C19D157482021801CFDF70AFA11E069460198FFF73DFF05460004000C08D103
:2034C00068460078002804D00120641CE4B2386000E03446B442EBD3002038604948202163
:2034E000801CFDF7EEF92846FEBD10B5FFF789FF0104090C02D0424A0021116010BD38B525
:20350000002569460D70FFF714FF04460004000C03D168460078002806D1394820210560D7
:203520003848801CFDF7CDF9204638BDF8B5C4B23E483F49005D0A5D4A4F8118891CCDB20F
:20354000801C3F57C1B22F4C0020454BA41C0646002F10D0012F19D0022F06D0032F12D04C
:20356000605D1E4660553046F8BDFF2003E0625C5040491CC9B2A942F9D3F3E7625C1018A3
:20358000491CC0B2C9B2A942F8D3EBE7AA2361180020FDF727FAE5E770B5C4B21C486500A6
:2035A000405B0D220102D20611431A48A20082580226100E0006C00108431102164A090A56
:2035C0001043FDF757FA1548015D15483143405BFDF73AFA11211020FDF778FA04460420CE
:2035E000FDF752FA2048FFF719F90020FDF74CFAE00701D1FDF76EFA70BD00005802002005
:203600006C02002081020020404B4C00D01400102E140010D4140010C9000E00A5160010C2
:203620003C1400100C0200204E1600107E1600108416001054160010601600106C160010A8
:20364000AC1600108A1600108D1600109F160010A21600103F16001033160010391600108B
:20366000FF03000078160010001C4E0E70B5204C002620681F4D00280DDA2E7000F0DCF816
:20368000012080074068000302D500F0F0F80CE000F022F909E0410003D52E7000F00EF99A
:2036A000F6E703218906884320602878002806D02E7001212068C9058843206070BD20687B
:2036C0000002FBD50120287070BD094801220168D20511430160074900200870704710B565
:2036E0001446FDF77BF9218849BA218010BD000058020020A3020020F0B58BB00F4606462E
:20370000002069460884154620216846FDF7D9F82AB20224154639463046FDF7DDF80028FC
:2037200006D009A8FEF7FEF90A98002829D101E0002426E069462420085E05214902C84273
:203740001FDB2D21090288421BDC354820223418464231466846FDF79BF8684600192A46DF
:203760003946FDF795F808AA20216846FFF7B7FF6846018CC1836A4631460020FDF71EF92B
:20378000044620460BB0F0BDFFB583B00E460546002069460E9F088114460090019001AA60
:2037A00002A8FDF785F900986946000E28700098000C68700098000AA8700098E870088949
:2037C000000A30700889707001981649000E20700198000C60700198000AA0700198E07027
:2037E00006980A780270497841700F4801880A0A0C994A700C99007808700C4801880A0AEC
:203800000D994A700D990078087009480949C08B884201D1012000E00020387007B0F0BDFB
:2038200000F0FFEFF0530010FC530010060200200008001069690000F8B5002568462D4CED
:203840002D4E0580A01B801C81B26A463046FFF746FF002804D1694609882288914205D0EE
:20386000357069460988218001210843F8BDF8B500256846214C224E0580A01B801C81B234
:203880006A463046FFF72BFF002804D1694609882288914205D035706946098821800121AB
:2038A0000843F8BD10B5FFF7C7FFFFF7E0FF15490322086892069043086010BD10B5FFF764
:2038C000BBFF01220F49D2060028086801D0104300E09043086010BD10B5FFF7C8FF012292
:2038E000084992060028086801D0104300E09043086010BD84000030000000309200003095
:20390000860000305802002070B56E486E4900686E4C6F4D084206D12068C10003D4410184
:2039200001D4002808DA68782E2803D0A22801D000F0B5F82E2068702068C00206D568783C
:203940002E2803D0A22801D000F0A9F86148624A017890780B46834306D0084390700121E2
:203960002068C9060843206070BD70B55B49002288565B4B5B491C7809687D23DB005943C9
:20398000030001F0C7FC050406081B1F2A0056481BE0564819E056487D2503785548ED0080
:2039A00000686843002B05D053492A460968514302460EE0002C0CD101460AE0002C08D16E
:2039C0004E4802E0002C04D14D4801687D20C0004143002000F0FAFD70BD4A48F5E7F8B540
:2039E0003D4CCC26A178314202D0002020701FE0454D0020285E192252022227904201DC80
:203A0000394201D0FF2007E019229201904202DB1122114202D0012020700BE023223B4B18
:203A2000D2433B49FCF7E2FF2070A078304201D0002008E00020285E3649884202DCA17840
:203A4000394202D0FF206070F8BD19229201904202DB1122114201D00120F4E711222B4BFC
:203A6000D2432D49FCF7C2FFEDE710B517480068000101D5FFF7B3FF154C1949207809784C
:203A8000884202D02E20607004E06078002805D0A22803D0FFF769FFA220607010BD1CB588
:203AA0006846FDF7C1FF68461749008808800A4901988870054801220168D206114301603C
:203AC0001CBD0000580200200000208070020020A40200203C000030370000305000003048
:203AE00045000030B41400107C14001078140010B8160010681400106414001074140010B3
:203B00006C14001070140010120000300200FE00D4050000BC5D0000E6020000FEB5664804
:203B200066490068664C674E674D084204D12068C10001D4002814DA644F38782E280ED069
:203B4000A2280CD06846FDF7EDFF6846008828800198B070012120688906084320602E2048
:203B600038705B4900200022285E8A5E904208DC584900228A5E904203DBB0783321084272
:203B800001D0FDF7F9FFFEBDF8B54E4CCC26A178314202D0002020701FE04B4D0020285E29
:203BA000CD27FF01B84202DC2222114201D0FF2007E03122D201D04202DB1122114202D05E
:203BC000012020700BE0FF21434B3322FF31FCF70DFF2070A078304201D0002008E0002004
:203BE000285EB84203DCA1782222114202D0FF206070F8BD3122D201D04202DB11221142A5
:203C000001D00120F4E7FF21334B3222FF31FCF7EDFEEDE770B52A4C2068400101D5FFF7D3
:203C2000B3FF2A4D2878002805D0A22803D000F01EF8A2202870204801682348002901DA81
:203C4000018812E01F49897800290FD10222415E825E05238A1A1B02D218204B9A4205D3E2
:203C6000012322685B051A432260418070BD10B51B4800228156002907D01A487D230068DE
:203C8000DB005843022911D105E0174801687D20C00041430BE015490978002906D01449ED
:203CA0007D220968D2005143024600E00146012000F08CFC10BD00005802002000001080AF
:203CC000700200203A00003014000030A6020020EA130010EC1300100200FE00010A0000B5
:203CE000500000308014001084140010B816001064140010F0B54F484F4900684F4C504E1D
:203D0000504D85B0084206D12068C10003D4410101D4002820DA4C4F38782E281AD0A22802
:203D200018D06846FDF7A5FF69464848098801806946098941800398A87001986870206856
:203D4000002130432060424801700199890501D5012101702E2038703E48017868780A469E
:203D6000824304D00843687020683043206005B0F0BD10B531480068800101D500F038F88D
:203D8000314C2078002805D0A22803D000F003F8A220207010BD10B52F490022885603002A
:203DA00001F0B8FA05040608191B1D002B4817E02B4815E02B487D2301782B48DB000068E4
:203DC0005843002905D029491A460968514302460AE0014608E0264802E0264800E0264806
:203DE00001687D20C0004143022000F0EFFB10BD10B5144CCC206178014201D000200AE0A8
:203E0000124A0020105EFF22D200904202DC2222114202D0FF20207010BD002802DB1122F8
:203E2000114201D00120F6E7144B00221449FCF7DDFDF0E75802002000000880700200204A
:203E4000000000023D000030A7020020180000308D0000303C000030500000309C14001079
:203E600098140010B81600108814001064140010941400108C140010901400100200FE0058
:203E8000082000001CB5224822490068084205D121480068C10001D4002811DA1F4C20784F
:203EA0002E280BD0A22809D06846FEF783F868461B49008808801B49019808702E2020709B
:203EC0001CBD10B5154C207800281FD0A2281DD0154800228256002A07D0144801687D20C3
:203EE000C0004143022A0BD101E0114804E011480078002804D0104801687D20C0004143E9
:203F00000022032000F062FBA220207010BD0000580200200000048070020020A802002096
:203F20001C0000304000003050000030A0140010A4140010B81600106414001010B5134833
:203F40000068002809DA124900200870114908701149087011490120087000F09FF810BD10
:203F600010B50A48006800280DDA0D49002008700C490F4A08700C4908700C4908700121E3
:203F800011700C49087000F03BF810BD58020020450000304700003048000030460000308F
:203FA000490000304A000030420000304300003041000030440000300F4801210170002139
:203FC0004170817070471CB50B4C68462178FEF727F868460078607068464078A07007484A
:203FE0000078022806D92078002801D0002000E00120207001981CBD41000030B416001041
:20400000F8B51F4901229207086854109043A0430860820128D51B4A16781B4A13785D1C01
:20402000EDB2002E06D0CC273E420CD122273E4206D110E0154E164F36783F78BE4205D3F8
:204040000A2B00D21570204308600EE0114B1B789E4203D309E011231E4206D0002313707D
:204060000122920710430860F8BD10780428FBD1094800780128F7D1072000F0A7FBF8BD6C
:20408000700200203E000030440000303D000030E9150010E815001050000030F0B50020DF
:2040A0008FB0059007460B9005460C90401EFF2603960A9009900890002187480491027877
:2040C000CC2002428548864C016812D00122627012059143016000221146092000F076FA83
:2040E000002211460A2000F071FA002020700FB0F0BD0A0202D57B4A1278E27000290DDA12
:204100007948002141560B0001F004F906040408040404080020207001F061F8724800212E
:204120004156012931D0022904D0032916D004292BD137E02078002801D06C4800E06C4893
:2041400006786C4807686C4800680C900B200A906A4805680D200990694812E020780028F9
:2041600001D0684800E06848067868480768684800680C900B200A90664805680D20099037
:2041800065480078039009200890544B196808012ED5A07800281FD0524A1278824218D970
:2041A000101A17E02078002801D05C4800E05C4806785C4807685C4800680C900C200A9026
:2041C0005A4805680E2009905948007803900A20DAE7801AC0B20590E078002808D0414AEE
:2041E0001278824201D9101A00E0801AC0B20490C80207D53B4801220078A0703748120583
:2042000091430160012105980907B04211D901202070324802680A4302600C980B907D209E
:204220002946C000414300220A2000F0CFF90A981DE0207800281FD03E480068C2040BD5E5
:2042400000202070254802680A430260002211460A2000F0BBF90CE0000533D57D202946DC
:20426000C000414300220A2000F0B0F9099800F0F5FC2078002814D1002F12D02D48012146
:2042800000680903084015490968C90FC907084305D1A078002802D06078002801D00B9745
:2042A00002E00B9800280DD07D200B99C00041430022092000F08AF908480122016812053E
:2042C0001143016004990398814202D9089800F0C5FC002060700AE7390000307002002026
:2042E000450000303700003050000030ED150010EA150010A8140010B8140010C4140010B1
:20430000F0150010EE150010EB150010AC140010BC140010C8140010F1150010EF1500109F
:20432000EC150010B0140010C0140010CC140010F21500105802002070B50A4A010C128813
:20434000094C511A0DB2C106C90F21700749084207D1FF21064B002289002846FCF746FB7E
:20436000607070BD1C00003049000030EFFF00000100FE0010B517480068002802DA16499F
:204380000020087000F02AF800F001F810BD10B5114900220F4C8A562068012A14D0022A7E
:2043A00012D0032A04D0042A08D00020087010BDC001FCD5022000F051FC10BDC00102D559
:2043C000022000F04BFC20688001F6D500F034F810BD0000580200204B00003070B57248F3
:2043E00002210078714C00280AD0714800254557002001222B0000F08DFF04031D051D06B3
:20440000217001E0042020706A4D28688001800F0FD1FEF745FE014600202056814206D190
:204420002968002903DB64490968002901DAFEF770FE70BD2270E7E7F0B587B00020009046
:204440000190062069460872002402A96846FEF7BEFE002801D0022848D16846007A0628BC
:2044600044D3564F3E462D3635460F3D6000C01902226946FCF730FA325D002A09D00028EF
:2044800007D14E49A0003C31401800A90231FCF723FA295DC90707D0002823D100A8032246
:2044A00047490330FCF718FA00281BD14548A1004158002902D000A802308847285D8007A9
:2044C00010D539480078002805D03B480122016852051143016068463B4980780870032021
:2044E00000F0BCFB641CE4B20F2CBFD307B0F0BD10B5022000F0B2FB10BD10B5002000F0A8
:20450000ADFB022000F062F910BD10B5012000F0A5FB012000F05AF910BD10B5042000F039
:204520009DFB10BD10B5052000F098FB10BD10B50446C07800090D280AD1052000F08EFBDE
:20454000E07821490007000F4870022000F03EF910BD10B5044600F061FA1B4920780870E7
:2045600000F05EFA10BD10B5022000F02FF910BD10B5012000F02AF910BD10B50F2000F0B0
:204580006DFB10BD10B5002000F020F910BD10B505480078022805D0052000F05FFB06200D
:2045A00000F014F910BD00006B0000304B000030500000305802002070020020F01400107B
:2045C00064000030441300108E00003070B503460A330124E407DC406B4B5D68A5435D602B
:2045E000002902D0FDF7D0FF70BDFDF7F5FF70BDF8B56648644C01680020654D654E002999
:204600001EDA6549206008606449087064490860644908606449087064490870644800883F
:204620006449088064480078644F387000F000FA38782870307001212068C907084303E04C
:20464000490003D531782970206001E000F01DFA00F012FA00F0FFF800F05AFA4B49812231
:2046600008681204104203D0FF22013210430860F8BD70B5454D444C2868810F01D0002172
:204680006160010409D546490968002905D00121C9038843286000F0CCF829681D22084665
:2046A000D202636890431843114028606160FFF79FFFFFF743FC00F0AFFAFFF75BFE60681A
:2046C00000280DD001214903884204D13C4900200856401C04D00121206809070843206010
:2046E000FCF7D1FCFFF73CFC00F017F82C20216842070646203E1346F340401C9943C0B2CF
:204700004028F6D32160606801432E48296801D0014300E08143296070BD70B51B490024B8
:204720000868C2052ED5FF220132904308602049085F20490A5F904204D002221C48FEF7EB
:20474000DBFF04461C49002008561C4900228A56904204D001221848FEF7CEFF0443002198
:204760000D4D002C0AD02868401C2860032805D2002215490520FFF729FF00E02960287897
:20478000FEF79AFA70BD00007002002058020020A9020020500000304C000030510000300F
:2047A0002C000030300000305200003090000030001000101E000030021000106B000030D0
:2047C00055000030000200000080841EF0B5864AFF23146801338549854D002600271C439D
:2047E0008E57EF57030000F095FD09060A0F0E0E0E180F210E00002E05D0002002E0012E2D
:2048000001D001200870F0BD022EFCD002200870012FF8D128701460F0BD764B00201856EA
:204820008642F9D00870002FF4D0F0BD00200870F0E710B5704A7D2110680903884200D223
:204840000146401A10607D20C000414300220620FFF7BCFE10BDF8B50027684D6349EA572B
:20486000C857674C82420BD0287001212068C90708430022206011460620FFF7A7FE012788
:204880000022AA5603215F485B4E130000F042FD069292047757298F21688A000AD5012079
:2048A0004005014305202160287000206870FFF783FB7FE00078072804D153480068306057
:2048C000FFF7B7FF20684849C00FC00709680122D203114008436DD0072000F0BFF94A48DA
:2048E00048E0226852002DD40078062804D1474800683060FFF79DFF20683B49C00FC0077D
:2049000009680122D203114008430ED0404968780978884201D8401C6870062000F09EF946
:204920003A4800683060FFF784FF2068800041D537486978007881423CD9042035E02268F3
:20494000520001D5297035E00078082804D1314800683060FFF76DFF20682349C00FC007A7
:2049600009680122D2031140084323D0082000F075F9284800683060FFF75BFF1AE020687F
:20498000810006D52248697800788142D5D805200BE0002804DA204800683060FFF749FFD4
:2049A00011480088000405D50220287002E00120FEF78EF80D4800210022695682569142FE
:2049C0000BD0017001212068C90708430022206011460620FFF7FAFDF8BD002FFCD1206881
:2049E000400040082060F8BD58020020A90200206B000030E71500102C0000305000003032
:204A000070020020550000305C14001054140010E6150010581400106014001070470000C5
:204A200010B52749254808600020FEF751F810BD10B5FEF74AF80103214810D51F49C9437F
:204A400001602049002008701F490870FFF7E6FF1E480078002801D1FFF7E2FF10BD006855
:204A600016498842FAD11A4801220168920511430160FDF78CF910BD10B516480068000136
:204A800002D50120FEF724F810BD10B510480C490268530203D4094C0B68A3420CD101238A
:204AA0009B059A4302600548C0430860032000F0D5F80820FFF78AFE10BD00007A5E0E1214
:204AC000880000308E0000308F0000306B000030700200205802002010B5484A7D2110688D
:204AE0000903884200D20146401A10607D20C000414300220B20FFF769FD4148008840051D
:204B000005D540480122016852051143016010BDF8B53D4C012720787F053A4E032826D0AB
:204B2000374D2868410508D534490968002904D0F91288432860FFF7CFFF344928680842DA
:204B400002D1306880021AD5FDF7B5FFC5B23068B8433060217800260320002910D0012922
:204B60000ED002293BD00120FDF7B2FF43E030680022B843306011460B20FFF727FDF8BDA2
:204B80002B070222002B01DA22702AE0002D24D000290BD06178032901D2491C6170A90938
:204BA000617806D0032906D3207013E001212170F4E70029E8D1207803280BD021787D207A
:204BC0004002012902D0022900D011480B490860FFF782FF0F480570F8BD66700BE0002DA1
:204BE00001D06070EAE76078002804D0401E0006000E6070E2D12670E0E7000030000030BD
:204C00005802002070020020520000300004008080EE36009000003010B50B480068002876
:204C20000FDA00F067FB00200849C04308700849087008490020087007490870042000F0BF
:204C40000DF800F09BF810BD5802002054000030550000305800003059000030F8B5F84C7A
:204C60000026A157CAB28C46102A0BD22179022908D1F449895C012903D96379491E8B42DB
:204C800000D30126F049002563784D57EF49102B09D20327E757AF4205D0CB5C0A2B02D390
:204CA0000023DB436370C3B2102A06D20227E757AF4202D08F5C0A2F1AD2604505D1277904
:204CC000012F02D16779002F3AD00127E757B84236D0102A05D2002E03D1CE5C8A5C964257
:204CE0002ED8FAB2102A03D2CE5C895C8E4227D8D749D84AC95C5156D74A1278022A05D358
:204D0000D24AC9B2921F515C002919D1E5706070D2480122016812061143016010206071F2
:204D2000002211460720FFF751FC6078CC49085C002806D0CB48008A002801D002202071F8
:204D4000F8BD00202071401E2070F8BD10B5C6480168BB484A040AD501210171417900226E
:204D6000491C417111460820FFF730FC10BD8904FCD500210171491E017010BDF8B5BA4869
:204D80000026F64300680027354600280FDAB748007802280BD1B6480022C1897D20C00055
:204DA00041430820FFF712FCA54902200871AB4C01202168C0058143A14821600379A44ABC
:204DC000002B0CD00178102905D3012B1FD10120FDF77EFE16E09B485656475C05E04078D0
:204DE000102814D2974916560F5C9A49F0B20D569948007802280AD39449E8B2891F085C13
:204E0000002804D08E4800210171491E41708C480079002814D001282ED0022863D0012017
:204E2000FDF756FE864800210171491E0170844901200A790006002A59D0012A79D15DE075
:204E40007F480022C17881704178D2430170427010290AD3002211460720FFF7B7FB0022CE
:204E600011460820FFF7B2FBE1E7824A00211170417101210171DAE771480078062803D1A0
:204E8000FFF7A1F8FEF704FA3046FEF7F1FA01222168D20511432160FFF74EFA012F04D997
:204EA0006748791E42798A4202D30022114608E0007871498000085801887D20C000414373
:204EC00000220720FFF782FB5D480022007841006748415A7D20C00041430820FFF776FBDC
:204EE0005749022008713846FFF730FF9FE7497810291ED2216801432160F8BD2168014394
:204F00002160E9B2012901D9012000E000204000281A40B2012901D9584900E05849C000F6
:204F20000858002800D08047304600F06EF9F8BDFFE721688143DFE74848012201681207A2
:204F4000114301604F49002008704F4908707047424801220168120711430160494900200F
:204F600008704949087070473C4801220168120711430160704710B504461021FBF7A1FC94
:204F80004249207809780422C9010843404920700978C907490E08433E4920700978C907BE
:204FA000890E08433C4920700978C907C90E08432549207009784907090F08432070374846
:204FC000374900786070A01CFBF762FC354800880104090E21726072334800786074334835
:204FE00000880104090EA172E07231480078A074304800880104090EA171E0712E48007836
:2050000020742E4800880104090E21752C4960750978A07D49010843A0752A4800880104BB
:20502000090E2173607328480078E07427480078A07327480078E0736420E07510BD0000DC
:205040005400003003160010500000306E150010F31500103F1600105200003070020020FF
:20506000131600106C000030580200206B0000300E140010040200208013001030530010B8
:20508000201000104200003043000030F2530010B31600108D0000305A00003090000030B6
:2050A000630000301200003039000030140000303C000030180000303E0000301A00003002
:2050C0003F0000301C000030400000304A0000308E000030704710B504461521FBF7F1FB93
:2050E0006B480722007820706A4881786170C078A0706949E01CFBF7CBFB684920460A7809
:20510000A2724978E172664910300A7822734978617364490A78A2734978E17304226249A2
:20512000FBF7B6FB6148017821754078607585E75F4801220168120711430160704710B59E
:2051400004461121FBF7BDFB43202070C820607004225049A01CFBF79BFB564857490078C5
:20516000A07155480078E071E07B09788907C90E08435349E0730978207C490108435149EF
:205180000978C907C90E08434F4909780907090F0843207452E710B5C2B2012A01D90123E1
:2051A00000E000235B00C01A40B2012A01D9474A00E0474AC00080184268002A01D0084673
:2051C000904744480178102901D2491C00E0102101704149007808182038C07F2EE710B56D
:2051E0003E4800214156093905290DD83C49098A002900D0022101710021C94301700022B6
:2052000011460720FFF7E2F918E7F8B507463549C0B20E5C00252C4610212F48FBF751FB6F
:2052200000202C49012E08702AD92C482E490078761E085C39068F0DF6B2002821D0FBF746
:20524000DDFB80072949800F4843FEF721F815E0FBF7D4FB01E0491CC8B23146FBF7EEFA8E
:20526000012088402042F6D10120884004432048C059415C184841556D1CEDB2B542E7D3FF
:2052800055E61B483246C1591348FBF701FB4EE6F353001063000030F45300105B00003096
:2052A0005D0000305F000030670000306100003070020020380000303B0000300210001023
:2052C00050000030490000308F000030305300102010001004020020AA02002054000030CD
:2052E0006C0000303916001023160010C05D0000C01300100EB5064A0292511D881E01911D
:20530000831E0090011D0D32801DFEF73DFA0EBD5A00003030B47446641E2578641CAB42B7
:2053200000D21D46635D5B00E31830BC18470000694F0010774F0010D5500010D7500010CD
:20534000315100103F5100100000000000000000000000000000000000000000000000001B
:2053600000000000000000000000000000000000000000000000000000000000000000002D
:2053800000000000000000000000000000000000000000000000000000000000000000000D
:2053A0000000000000000000000000000000000000000000000000000000000000000000ED
:2053C0000000000000000000000000000000000000000000000000000000000000000000CD
:2053E0000000000000000000000000000000000028000072010E40002127100099126969EF
:00000001FF
